:100000000C945D340C9485340C9485340C948534B4
:100010000C9485340C9485340C9485340C945436AB
:100020000C9485340C9485340C9485340C9485346C
:100030000C9485340C9485340C9485340C9485345C
:100040000C94B2350C9485340C9422360C94FC3507
:100050000C9485340C9485340C9485340C9485343C
:100060000C9485340C948534FCFCF6F6FDFD0303FA
:100070000000F8F80000070707070606FAFA03036E
:100080000808FDFD020200000A0A0B0BF6F600004C
:1000900005050000FAFAF0F0F9F9FCFCF2F2FAFAC0
:1000A000FAFAF7F7FDFDF7F700000505FAFA05057E
:1000B000050607070E0E02020D0D0D0D02020E0EB3
:1000C000060607080202F3F30404FAFAF2F3F9F958
:1000D000EFEFF9F9F2F2EEEE00FEF4F4F7F7F8F8CC
:1000E000F8F70A0A000003030E0E070712120B0BA3
:1000F0000B0C141404040B0B080801010506F5F59C
:10010000FCFCFBFBEEEEF8F8EEEEF1F1F5F5E9E9BB
:10011000FAFAF6F6F3F30000F9F907070707020207
:10012000121209090F0F1111090915150707060603
:100130000B0BFEFE0404F9F9F5F5FDFDEDEDF4F40D
:10014000F2F2ECEBF6F6ECEBF5F4FBFBF2F201016C
:10015000FDFD02020C0C030311110E0E0B0B151505
:100160000A0A10100C0C03030B0BFEFEFEFEFDFD35
:10017000F2F2FAFAF0F0EFEFF6F5EBEAF4F4F2F15E
:10018000F0F0FDFDF4F4FEFE030300000C0C070785
:100190000C0C1212090913140D0E0B0B0F0F030395
:1001A00008080101FAFAFE00F3F3F6F6F4F3EDECB9
:1001B000F6F6EDEDF1F0F6F5F0EFFBFBF8F8FCFBF1
:1001C000060600000A0A0B0B090912130A0B10108D
:1001D000101008090E0F050504040404F9F9FDFECA
:1001E000F6F6F3F3F6F6EEEDF4F3F1F1EFEEF7F7E2
:1001F000F2F1F8F7FCFBFAF90505020107060D0D0F
:10020000080810110D0E0C0D111108090C0C08082E
:1002100001020404FAFBFBFCF9F9F1F2F7F7F0F044
:10022000F1F1F4F4EDEEF7F6F5F4F5F5FDFDF9F97D
:100230000302050404030D0D08090E0E10100A0B2D
:1002400010110A0B090A0A0B01010504FEFDF9F958
:10025000FBFBF2F2F6F5F3F3EEEEF5F4EEEFF4F36A
:10026000F8F7F2F3FDFDFBFBFE00060600030B0CA6
:100270000B0B090B11110A0B10100F0D07080C0CBA
:10028000030203020200F8F8FDFBF6F4F3F2F6F5C0
:10029000EFEDF5F3F1F1EFF1F7F8F2F3F9FBFCFE16
:1002A000FAFC0406020407090C0E080A10110E0ECF
:1002B0000C0D111009070B0A080501000401FBF8D9
:1002C000FCFAFBF7F2F0F6F5F1EFF1F0F4F3EDEFF5
:1002D000F4F7F4F5F5F8FC00F9FC01050507030750
:1002E0000B0F0A0A0E0F10100A0B10100D090B0845
:1002F0000A070300050100FAFAF7FAF8F4F0F5F33B
:10030000F1F1EEEFF3F4F0F0F2F5F5F8F3F7FB00AE
:10031000FAFEFE0205080206090E0B0C0C0D121166
:100320000D0B0F0E100B09060B080500030001FD55
:10033000F9F5FBF8F7F2F3F2F4F3EEEEF2F3F1F283
:10034000EFF3F5F9F4F7F8FEFC00FC0005090507EA
:10035000070B0D0E0B0B10110F0C0C0C100D0A06D9
:100360000A07070101FE02FEFBF6F9F7F8F4F2F0C6
:10037000F4F4F0EFEFF2F2F4EFF1F4F9F6F8F6FC42
:10038000FC02FD0003080608060A0D100C0C0E0FF7
:10039000100E0D0B0F0D0C060805080302FC01FEE4
:1003A000FDF7F8F5F8F6F3F0F3F3F2F1EFF1F2F50B
:1003B000F0F2F3F7F6FAF6FBFC02FE010105060A7D
:1003C00006090C0F0D0D0D0D100F0E0B0E0C0C076A
:1003D0000804080403FD00FCFDF8F8F5F8F6F4F154
:1003E000F2F1F3F2F0F0F1F4F1F3F2F6F6FBF6FAD3
:1003F000FB0000020004060907080A0D0E0F0C0D91
:10040000100F0F0B0D0B0D0A08040704040000FB6E
:10041000FEFAF9F6F7F5F5F3F2F1F3F3F0F1F0F295
:10042000F2F5F2F6F6FAF7FBFAFE0003000405080F
:100430000809090B0E0E0D0D0F0D100D0D0B0D09FA
:1004400009050703050100FCFEFAFAF7F7F5F6F4D3
:10045000F2F1F2F2F1F2F0F2F2F4F2F5F5F9F8FB62
:10046000F9FDFE02000404070809090B0D0E0E0D2C
:100470000E0D100D0D0B0C090A060604050100FCFB
:10048000FDFAFBF8F7F6F5F4F3F1F1F2F2F2F0F21F
:10049000F2F4F3F5F4F8F8FBF9FDFE0101040307AB
:1004A0000809090A0C0D0E0D0E0D0F0D0D0B0C0990
:1004B0000B070603040101FDFDFAFBF8F7F5F5F45F
:1004C000F3F3F1F2F2F2F0F2F1F4F4F6F4F7F8FBF0
:1004D000FAFDFD010104030608090A0B0B0D0E0DC0
:1004E0000E0D0F0D0E0B0B090B070704040101FD88
:1004F000FDFAFBF9F7F5F5F4F4F3F1F2F2F2F1F2AB
:10050000F1F4F4F6F4F7F7FBFAFDFD00010403053E
:1005100007090A0B0B0C0E0E0E0D0E0D0E0B0B0920
:100520000A080704030101FEFDFAFAF9F8F6F4F4EB
:10053000F4F3F2F1F1F2F2F2F1F3F3F6F4F7F7FA81
:10054000FBFDFC000004040506090A0B0B0C0D0E54
:100550000F0D0E0D0E0C0C090A0808040301010012
:10056000FEFAFAF9F8F6F5F3F4F3F2F1F0F2F2F23A
:10057000F1F3F3F6F5F7F6FAFBFEFD0000040406CE
:1005800006080A0B0B0C0D0D0F0E0E0C0D0C0C09B2
:100590000A08080504010100FEFBFAF8F8F6F5F375
:1005A000F3F3F3F2F0F1F1F3F2F3F2F6F5F7F6F913
:1005B000FAFEFD00000304060608090B0C0C0C0DE6
:1005C0000F0E0E0C0D0C0D090A070805040001FEA4
:1005D00000FCFAF8F8F7F6F4F3F3F3F2F1F1F1F3C3
:1005E000F2F3F2F5F5F8F7F9F9FDFD000002030664
:1005F0000608080B0C0C0C0C0E0E0E0C0D0B0D0A45
:100600000A070705050101FE00FCFBF8F8F7F7F4FF
:10061000F3F2F3F3F2F1F1F2F2F4F2F5F4F8F7FA9F
:10062000F9FDFD00000203060708080A0B0D0D0D79
:100630000D0E0E0D0D0B0C0A0B070704050101FE34
:1006400000FCFCF8F8F6F7F5F4F2F2F2F2F2F1F24F
:10065000F2F4F3F5F4F7F7FAF9FDFC0000030206F3
:100660000609080A0B0C0D0D0D0D0E0D0D0B0C0AD5
:100670000B070704050202FEFEFCFCF8F8F6F7F58E
:10068000F4F3F2F2F2F2F1F2F2F4F3F5F4F7F7FA2E
:10069000F9FCFC00000302050609080A0A0C0D0D0E
:1006A0000D0D0E0D0E0B0C0A0B080804050203FEBF
:1006B000FEFBFCF9F9F6F6F5F5F3F2F2F2F2F2F2DE
:1006C000F1F4F3F5F4F7F7FAF9FDFB000003020586
:1006D0000508080A0A0C0D0E0D0D0D0D0E0B0C0A67
:1006E0000A0808040502020000FBFCF9F9F6F6F41A
:1006F000F5F3F3F2F2F2F2F2F2F3F3F5F4F7F6FABD
:10070000FAFDFC00000303050508080A0A0C0C0D9D
:100710000E0D0D0D0D0C0C0A0A080805050202004D
:1007200000FBFBF9F9F6F6F4F4F3F3F2F1F2F2F36D
:10073000F2F3F3F5F5F7F6FAFAFDFC000003030611
:100740000508080A0B0C0C0D0E0D0D0C0D0C0C0AF7
:100750000A0808050502020000FCFBF9F9F7F6F5A6
:10076000F4F3F3F2F2F2F2F3F2F3F3F5F5F7F7F94B
:10077000F9FDFC00000203060508080A0B0B0C0D2E
:100780000D0D0D0C0D0B0C0A0A08080505020200E0
:1007900000FCFBF9F9F7F7F5F4F3F3F3F2F2F2F3F7
:1007A000F3F3F3F5F5F7F7F9F9FDFD0000020206A2
:1007B0000508080A0B0C0C0C0D0D0E0C0D0B0C0A89
:1007C000090707050502010000FCFCF9F9F7F7F538
:1007D000F4F3F3F3F3F2F2F3F3F4F3F5F5F7F7FAD6
:1007E000F9FCFD0000020205050807090A0C0C0CC3
:1007F0000C0D0D0D0C0B0C0A0A0707050502010074
:1008000000FCFCF9F9F7F7F5F5F3F4F3F3F2F2F283
:10081000F3F4F4F5F5F7F7FAF9FCFC000002020531
:100820000508070A0A0C0C0D0C0D0D0D0D0B0B0A1B
:100830000A0807050502020000FCFCF9F9F7F7F5C4
:10084000F5F3F3F2F3F2F2F2F2F4F4F5F5F7F7FA66
:10085000F9FCFC00000201050508080A0A0B0C0D52
:100860000C0D0D0D0D0B0B0A0A0808050502020000
:1008700000FCFCF9FAF7F7F5F5F3F3F2F2F2F2F215
:10088000F2F4F3F5F5F7F7FAF9FDFC0000020205C2
:100890000408080A0A0B0C0C0D0D0D0C0D0B0C09AD
:1008A0000A0808050502020000FCFCF9FAF7F7F552
:1008B000F5F3F3F3F2F3F2F3F2F4F3F5F5F7F6FAF6
:1008C000F9FCFC00000202050508080A0A0B0C0CE2
:1008D0000D0D0D0C0D0B0C090A0708050501020092
:1008E00000FCFCF9FAF7F7F5F5F4F3F3F2F2F2F3A2
:1008F000F2F4F3F6F5F7F6FAF9FDFC000002020552
:100900000507070A0A0B0B0C0D0C0D0C0D0B0C093F
:100910000A0708050602020000FCFCF9F9F7F7F5E2
:10092000F5F4F4F3F3F3F2F3F3F4F3F6F4F8F6FA80
:10093000F9FCFC00FE020105050707090A0B0B0C78
:100940000C0C0D0C0D0B0C090A0708050602020021
:1009500000FCFDFAFAF7F7F6F5F4F4F3F3F3F2F32B
:10096000F3F4F3F5F5F7F7FAF9FCFC0000020105E2
:1009700005070709090B0B0B0C0C0D0C0D0B0C09D3
:100980000A0708050502020000FCFCFAF9F7F7F572
:10099000F5F4F4F3F3F3F2F3F3F4F4F6F5F8F7FA0D
:1009A000F9FCFC000002020505070709090B0C0C05
:1009B0000D0C0D0C0D0B0C090A08080505020200B0
:1009C00000FCFCFAF9F7F7F5F5F4F3F3F3F3F2F3BF
:1009D000F2F4F4F5F5F7F7FAF9FCFC000002020472
:1009E000050708090A0B0C0B0D0C0D0C0D0B0C095F
:1009F0000A0808050502020000FDFCFAF9F7F7F6FF
:100A0000F5F4F3F3F3F3F2F3F2F4F3F5F5F7F7FAA1
:100A1000F9FCFC0000010204050708090A0A0C0C95
:100A20000D0C0D0C0D0B0C090A080805050202003F
:100A300000FDFCFAFAF8F7F6F5F5F3F3F2F3F2F34A
:100A4000F2F4F3F5F5F7F7F9F9FCFC000001020404
:100A5000050608080A0A0B0B0D0C0D0C0D0B0C0AF1
:100A60000A0808050503020000FDFCFAF9F8F7F68C
:100A7000F5F5F4F4F3F3F2F3F3F4F3F5F5F7F7F92E
:100A8000F9FCFCFE00010104050608080A0A0B0B2C
:100A90000C0C0D0C0D0B0B090A08080505020200D1
:100AA00000FDFDFBFAF8F7F6F5F5F4F4F3F4F3F4D2
:100AB000F2F4F4F6F5F7F7F9F9FCFCFE0001010495
:100AC00004060708090A0B0B0C0C0D0B0C0B0C0988
:100AD0000A0808050503020000FDFDFBFAF9F7F618
:100AE000F6F5F4F4F3F3F3F4F3F4F4F6F5F7F7F9B9
:100AF000F9FCFCFE000101030406070809090B0AC2
:100B00000C0B0C0B0C0B0C090A080806060303005F
:100B100000FEFDFBFAF9F8F7F6F5F4F4F3F3F3F45D
:100B2000F3F4F4F6F5F7F6F9F8FBFBFEFE0001032B
:100B30000406070809090B0B0C0B0D0B0C0B0C0919
:100B40000A0808060603030000FEFDFBFAF9F8F7A1
:100B5000F6F6F4F4F3F4F2F4F3F4F3F5F4F7F6F94B
:100B6000F8FBFBFEFE0000030406070809090B0B57
:100B70000C0B0D0B0D0A0B090A08080606030300EF
:100B800000FEFEFBFBF9F8F7F6F5F4F4F3F4F2F4EB
:100B9000F2F4F3F5F4F7F6F9F8FCFBFEFE000003BF
:100BA0000306070808090B0A0C0B0D0B0D0A0C09AC
:100BB0000B0809060603030000FEFEFBFBF8F8F72E
:100BC000F6F5F4F4F3F4F3F4F2F5F3F6F4F7F6F9DA
:100BD000F8FCFBFEFE01000303060608090A0B0BE6
:100BE0000C0B0D0B0D0B0C090B070905060203007E
:100BF00000FDFDFBFBF8F8F7F6F5F4F4F3F4F2F47E
:100C0000F2F5F3F6F4F7F6F9F8FCFB00FE01010447
:100C100003060608090A0B0B0C0B0D0B0D0A0C0939
:100C20000B0709050603040000FDFEFBFBF8F8F7BF
:100C3000F6F5F4F4F3F4F2F4F2F5F3F6F4F8F6FA68
:100C4000F8FCFB00FE0101040306060809090B0A73
:100C50000C0B0D0B0D0A0C090A070905060303000E
:100C600000FDFDFBFBF9F8F7F6F5F4F4F3F4F3F40B
:100C7000F3F5F3F6F4F8F6FAF8FCFBFEFE010104D6
:100C80000406060809090B0A0C0B0D0B0D0A0C08CB
:100C90000A0708050602030000FDFEFBFBF9F8F752
:100CA000F6F6F4F5F3F4F3F4F2F5F3F6F4F8F6FAF5
:100CB000F8FCFBFEFE0101030306060808090A0A08
:100CC0000C0B0C0A0C0A0C080A07090506020300A3
:100CD00001FDFEFBFBF9F8F7F6F6F5F5F3F4F3F595
:100CE000F3F5F3F6F4F8F6FAF8FCFB00FE01000366
:100CF0000306060808090A0A0C0A0C0A0C0A0C0862
:100D00000A0709050702040001FDFEFBFBF9F8F7DD
:100D1000F6F6F5F5F4F5F3F5F3F5F3F6F5F8F6FA7E
:100D2000F8FCFBFEFD0100030306060708090A0A9A
:100D30000C0B0C0A0C0A0C080A0709050702030031
:100D400001FDFEFBFBF9F9F7F6F6F5F5F4F5F3F521
:100D5000F3F5F3F7F4F8F6FAF8FCFAFEFD010003F8
:100D60000305050708090A0A0B0A0C0A0C090C08F6
:100D70000B0709050702040001FEFEFBFBF9F9F76A
:100D8000F7F6F5F5F4F5F3F5F3F6F3F7F4F8F6FA0C
:100D9000F8FCFA00FD0100030305050708080A092D
:100DA0000B0A0C0A0C090C080B07090507020400C2
:100DB00001FEFEFBFBF9F9F7F7F6F5F5F4F5F3F5AF
:100DC000F3F6F4F7F4F8F6FAF8FCFA00FD01000384
:100DD0000305050708080A090B0A0C0A0C090C0888
:100DE0000B0709050702050001FE00FBFCF9F9F7F6
:100DF000F7F6F5F6F4F5F3F5F3F6F3F7F4F8F6FA9B
:100E0000F8FCFAFEFD0100030205050707080909C1
:100E10000B0A0C0A0C090B080A0709050702050052
:100E200001FE00FCFCF9F9F8F7F7F5F6F4F5F4F536
:100E3000F3F6F4F7F5F8F6FAF8FCFA00FD01000312
:100E400002050507070809090B0A0B0A0C090C081B
:100E50000A0709050703040002FE00FCFDF9FAF782
:100E6000F7F6F6F6F4F5F4F5F3F6F3F7F5F8F6FA27
:100E7000F8FCFAFEFC010003020505070708090952
:100E80000A0A0B0A0C090C080A07090507030400E3
:100E900002FE00FBFDFAFAF8F7F6F6F6F5F5F4F5C2
:100EA000F3F6F3F7F5F8F6FAF7FCFAFEFC000003A8
:100EB00002050407070809090A0A0B0A0B090C08AE
:100EC0000A0709050703040002FE00FCFCFAFAF811
:100ED000F8F7F6F6F5F5F4F5F4F6F4F7F5F8F6FAB2
:100EE000F7FCFAFEFC0000030204040707080909E6
:100EF0000A090B0A0B090B080A0709050703040076
:100F000002FE00FCFCFAFAF8F8F6F6F6F5F5F4F550
:100F1000F3F6F4F6F4F8F6FAF7FCFAFEFC00000338
:100F200002050406070809090A0A0B0A0B090B083F
:100F30000A0709050703050002FE00FCFCFAFAF89F
:100F4000F8F6F6F6F5F5F4F5F4F6F4F6F4F8F6FA44
:100F5000F7FBFAFEFC000003020504060708090976
:100F60000A0A0B0A0B090B080A0709050703050102
:100F7000020000FCFDFAFAF8F8F7F6F6F5F5F4F5DC
:100F8000F3F5F4F6F4F8F6F9F7FBFAFEFC000002CC
:100F900002050507070809090A0A0B0A0C0A0B09CA
:100FA0000B0709050703050102FE00FCFDFAFAF82C
:100FB000F8F7F6F5F5F5F4F5F3F5F4F6F4F7F6F9D8
:100FC000F8FBFAFEFC000002020405060708090906
:100FD0000A0A0B0A0C0A0B090A080906070405018C
:100FE000020000FCFDFAFAF8F8F7F6F5F5F5F4F56D
:100FF000F3F5F4F6F5F7F6F9F8FBFAFDFC0000025C
:10100000010404070708080A0A0A0B0A0C0A0B095C
:101010000A08090607040501020000FCFDFAFAF8B7
:10102000F8F6F6F5F5F5F4F5F3F4F4F6F5F7F6F968
:10103000F7FBFAFDFC000002010404060708080A99
:101040000A0A0B0A0C0A0B090A080906070405021A
:10105000020000FDFDFAFAF8F8F7F6F5F5F4F4F4FD
:10106000F3F4F3F5F4F7F6F8F7FBFAFDFC000002F1
:1010700001040407070808090A0A0B0B0B0A0B09ED
:101080000A08090607040502020000FCFDFAFAF846
:10109000F8F6F6F5F5F4F4F4F3F4F3F5F4F7F6F8FE
:1010A000F7FBFAFDFC000002010404070708080929
:1010B0000A0B0B0B0C0A0B0A0A08090607040501A8
:1010C000020000FCFDFAFAF8F8F6F6F5F5F4F4F48F
:1010D000F4F4F4F5F4F7F6F8F7FAFAFDFC00000280
:1010E000010404060708090A0A0B0B0B0B0A0B0A7A
:1010F0000A08090607040501020000FCFDFAFBF8D6
:10110000F8F6F6F5F5F4F4F4F4F5F3F5F4F7F6F88B
:10111000F7FAF9FDFC000002010404060608080ABB
:101120000A0A0B0B0B0A0B0A0B0809060704050138
:10113000020000FDFDFAFAF8F8F6F6F5F5F4F4F41D
:10114000F4F5F4F5F4F7F6F8F7FAF9FDFC0000020F
:10115000010404060608080A0A0A0B0B0B0A0B0A0C
:101160000A08090707040502020000FDFDFAFBF862
:10117000F8F6F7F5F5F4F4F4F4F5F4F5F5F6F6F819
:10118000F7FAF9FDFC000002010404060608080A4B
:101190000A0B0B0B0B0A0B0A0A08090707040502C6
:1011A000020000FDFDFAFBF8F8F6F7F5F5F4F4F4AB
:1011B000F4F4F4F5F5F6F6F8F7FAF9FDFC000002A0
:1011C000010404060608080A0A0A0B0B0B0A0B099D
:1011D0000A08090607040502020000FDFDFAFBF8F3
:1011E000F9F7F7F5F5F4F4F4F4F5F4F6F5F7F6F8A5
:1011F000F7FAF9FDFC00FE020104040606080809DE
:101200000A0A0B0B0B0A0B090A0809060704050258
:10121000030000FDFDFAFBF8F9F7F7F5F5F5F4F436
:10122000F4F5F4F6F5F7F6F8F7FAF9FDFC00FE012F
:1012300001040406060808090A0A0B0B0B0A0B092D
:101240000A08090607040502030000FDFDFAFBF881
:10125000F9F7F7F6F6F5F4F4F4F5F4F6F5F7F6F831
:10126000F7FBF9FDFC00FE0101040306060808096E
:10127000090A0A0A0B0A0B090A08090607040502EB
:10128000030000FDFDFBFBF8F9F7F7F6F5F5F4F5C3
:10129000F4F5F4F6F5F7F6F8F7FAF9FDFC00FE02BE
:1012A0000104030606080809090A0A0A0B0A0B09C1
:1012B0000A08090607040502030000FDFEFBFBF90E
:1012C000F9F7F7F6F6F5F5F5F4F5F4F6F5F7F6F8BF
:1012D000F7FAF9FCFC00FE01010303060508080902
:1012E000090A0A0A0B0A0B090A080906070405027B
:1012F000030000FDFEFBFBF9F9F7F7F6F6F5F5F54F
:10130000F4F5F4F6F5F7F6F8F7FAF9FCFC00FE014F
:101310000003030606070709090A0A0A0B0A0B0954
:101320000A08090607040502030000FDFEFBFBF99D
:10133000F9F7F7F6F6F5F5F5F4F5F4F6F5F7F6F84E
:10134000F7FAF9FCFBFEFE01000303050507070899
:10135000090A0A0A0B0A0B090A0809070705050208
:10136000030000FEFEFBFCF9F9F7F7F6F6F5F5F5DC
:10137000F4F5F4F5F5F7F6F8F7FAF9FCFBFEFE00E4
:10138000000303050507070809090A0A0B0A0B09E8
:101390000A08090707050502030000FEFEFCFCFA27
:1013A000F9F8F7F6F6F5F5F5F4F5F4F5F5F6F6F8DF
:1013B000F7FAF9FCFBFEFE0000030305050707082A
:1013C00009090A0A0B0A0B090A0809070705050398
:1013D000030000FEFEFCFCFAF9F8F8F6F6F5F5F568
:1013E000F4F5F4F5F5F6F6F8F7F9F9FCFBFEFE0076
:1013F0000003030505070708090A0A0A0B0A0B0977
:101400000A09090707050503030000FEFEFCFCFAB4
:10141000F9F8F7F6F6F5F5F5F5F5F4F5F5F6F6F86D
:10142000F7F9F9FCFBFEFE000003030505070708BA
:1014300009090A0A0B0A0A0A0A0909070705050326
:10144000030001FEFEFCFCFAFAF8F8F6F6F5F5F5F5
:10145000F4F5F4F5F5F6F6F8F7F9F9FCFBFEFE0005
:10146000000303050507070809090A0A0A0A0B0A07
:101470000A09090707050503030001FEFEFCFCF944
:10148000FAF8F8F6F6F5F5F5F5F5F4F5F5F6F6F7FC
:10149000F7F9F9FCFBFEFD0000030205050707084C
:1014A000090A0A0A0A0A0A0A0A09090707050503B6
:1014B000030001FE00FCFCFAFAF8F8F6F6F5F5F583
:1014C000F5F5F4F5F5F6F6F7F7F9F9FBFBFEFD0097
:1014D0000003020505070708080A0A0A0A0A0A0A99
:1014E0000A09090708050603030101FE00FCFCFACE
:1014F000FAF8F8F6F7F5F5F5F5F5F4F5F5F6F6F78B
:10150000F7F9F9FCFBFEFD000002020505070708DC
:1015100008090A0A0A0A0A0A0A0809070805060346
:10152000040101FE00FCFCFAFAF8F8F6F7F5F5F50F
:10153000F5F5F4F5F5F6F6F7F7F9F9FBFBFEFD0026
:10154000000202050407070808090A0A0A0A0A0A2B
:101550000A09090708050603030101FE00FCFCFA5D
:10156000FAF8F8F7F7F6F5F5F5F5F5F5F5F6F6F717
:10157000F7F9F9FBFBFEFD0000020205050707086D
:1015800008090A0A0A0A0A0A0A09090708050603D5
:10159000030101FE00FCFCFAFAF8F8F7F7F6F6F59D
:1015A000F5F5F5F5F5F6F6F8F7F9F8FBFBFEFD00B5
:1015B00000020205040707080809090A0A0A0A09BD
:1015C0000A09090708050603030101FE00FCFCFAED
:1015D000FAF8F8F7F7F6F6F5F5F5F5F5F5F6F6F8A5
:1015E000F7F9F8FBFBFEFD00000202040406060802
:1015F0000809090A0A0A0A0A0A0909070805060366
:101600000401010000FCFDFAFBF8F8F7F7F6F6F527
:10161000F5F5F5F5F5F6F6F7F7F9F9FBFBFDFD0045
:1016200000020204040606080809090A0A0A0A094F
:101630000A090907080506030401010000FDFDFA77
:10164000FBF8F9F7F7F6F6F5F5F5F5F5F5F6F6F733
:10165000F7F9F8FBFAFDFD00000201040406060894
:101660000809090A0A0A0A0A0A09090708060603F4
:101670000401010000FDFDFBFBF9F9F7F7F6F6F5B3
:10168000F5F5F5F5F5F6F6F7F7F9F8FBFAFDFD00D7
:1016900000020104040606080809090A0A0A0A0ADF
:1016A0000A090907080606030401020000FDFDFB04
:1016B000FBF9F9F7F7F6F6F5F5F5F5F5F5F6F6F7C2
:1016C000F7F9F8FBFAFDFD00000201040406060824
:1016D0000809090A0A0A0A0A0A0909070806060483
:1016E0000401020000FDFDFAFBF8F9F7F7F6F6F544
:1016F000F5F5F5F5F5F6F6F7F7F9F8FBFAFDFD0067
:101700000002010404060608080909090A0A0A0A6F
:101710000A090908080606040401020000FDFDFA92
:10172000FBF9F9F7F7F6F6F5F5F5F5F5F5F6F6F751
:10173000F7F9F8FBFAFDFC000002010404060608B4
:101740000809090A0A0A0A090A0909080806060412
:101750000401020000FDFDFBFBF9F9F7F7F6F6F5D1
:10176000F5F5F5F5F5F6F6F7F7F9F8FBFAFDFC00F7
:1017700000020104030606080709090A0A0A0A0901
:101780000A080907080606040401020000FDFDFB23
:10179000FBF9F9F7F7F6F6F5F5F5F5F5F5F6F6F7E1
:1017A000F7F9F8FBFAFDFC00000201040306060746
:1017B0000708090A0A0A0A090A09090708060604A5
:1017C0000401020000FDFDFBFBF9F9F7F7F6F6F660
:1017D000F5F5F5F6F5F6F6F7F7F9F8FBFAFDFC0086
:1017E000FE01010403050607070809090A0A0A0998
:1017F0000A090907080606040401020000FDFDFBB2
:10180000FBF9F9F7F7F6F6F6F5F5F5F6F5F6F6F76E
:10181000F7F9F8FAFAFDFC000001010303050507DA
:10182000070808090A0A0A090A0909080806060435
:101830000402020000FDFDFBFBF9F9F7F8F6F7F6EC
:10184000F6F5F5F5F5F6F6F7F7F9F8FAFAFDFC0016
:10185000FE0101030305050707080809090A0A092B
:101860000A090908080606040402020000FDFEFB3E
:10187000FCF9FAF8F8F6F7F6F6F5F5F5F5F6F6F7F9
:10188000F7F8F8FAFAFCFC00FE010003030505076F
:1018900007080809090A0A0A0A09090808060604C5
:1018A0000502020000FEFEFBFCF9FAF8F8F6F7F676
:1018B000F6F5F5F5F5F6F6F7F7F8F8FAFAFCFC00A8
:1018C000FE0100030305050707080809090A0A0ABB
:1018D0000A090908080606040502020000FEFEFBCC
:1018E000FCF9FAF8F8F6F7F6F6F5F5F5F5F6F6F789
:1018F000F7F8F8FAFAFCFC00FE01000303050507FF
:1019000007080809090A0A0A0A0909080806070453
:101910000502020000FEFEFBFCF9FAF8F8F6F7F605
:10192000F6F5F5F5F5F6F6F7F7F8F8FAFAFCFC0037
:10193000FE0100030205050706080809090A090A4D
:101940000A090908080607040502030000FDFEFB5A
:10195000FCF9FAF8F8F7F7F6F6F5F5F5F5F6F6F717
:10196000F7F8F8FAFAFCFC00FE010003020505078F
:10197000060808090909090A0909090808060704E7
:101980000502030000FDFEFBFCF9FAF8F8F7F7F694
:10199000F6F5F6F6F5F6F6F7F7F8F8FAF9FCFB00C7
:1019A000FE010003020504070608080909090909E0
:1019B0000A090908080607040502030001FEFEFBE8
:1019C000FCFAFAF8F8F7F7F6F6F5F6F6F5F6F6F7A4
:1019D000F7F8F8FAF9FCFBFEFE0100030205040724
:1019E00006080809090909090A0909080806070576
:1019F0000502030001FE00FBFCFAFAF8F9F7F7F61E
:101A0000F6F5F6F6F5F6F6F7F7F8F8FAF9FCFBFE58
:101A1000FD01000302050407060808090909090970
:101A200009090908080607050502030001FE00FC74
:101A3000FDFAFAF8F9F7F7F6F6F5F6F5F6F6F6F731
:101A4000F7F8F7FAF9FCFBFEFD00000302050407B6
:101A50000608080909090909090909080806070407
:101A60000502030001FE00FCFDFAFBF8F9F7F7F6AA
:101A7000F6F5F6F6F6F6F6F7F7F8F8FAF9FCFBFEE7
:101A8000FD00000302050407060807090909090902
:101A900009090908080607050502030001FE00FC04
:101AA000FDFAFBF8F9F7F7F6F7F5F6F5F6F6F6F7BF
:101AB000F7F8F8FAF9FCFBFEFD0000030205040646
:101AC0000608070908090909090909080806070499
:101AD0000502030001FE00FCFDFAFBF8F9F7F8F639
:101AE000F7F6F6F6F6F6F6F7F6F8F8FAF9FCFBFE76
:101AF000FD00000202050406060807090809090995
:101B000009090908080607050502030001FE00FC93
:101B1000FDFAFBF8F9F7F8F6F7F6F6F6F6F6F6F74B
:101B2000F7F8F7FAF9FCFBFEFD00000201050406D8
:101B30000508070908090909090909080807070527
:101B40000502030001FE00FCFDFAFBF8F9F7F8F6C8
:101B5000F7F6F6F6F6F6F6F7F7F8F8FAF9FCFBFE04
:101B6000FD00000301040306050807080809090928
:101B700009090908080607050503030001FE00FC22
:101B8000FDFAFBF8F9F7F8F6F7F6F6F6F6F6F6F7DB
:101B9000F7F8F8FAF9FCFBFEFD0000020104030669
:101BA00005080709080909090909090808060705B8
:101BB0000503030001FE00FCFDFAFBF8F9F7F8F657
:101BC000F7F6F6F6F6F6F6F7F7F8F7FAF9FCFBFE95
:101BD000FD000002010403060508070908090909B8
:101BE00009090908080607050503030001FE00FCB2
:101BF000FDFAFBF8F9F7F8F6F7F6F6F6F6F6F6F76B
:101C0000F7F8F7FAF9FCFBFEFD00000201040306F9
:101C10000508070908090909090909080807070546
:101C20000503030001FE00FCFDFAFBF9F9F7F8F6E5
:101C3000F7F6F6F6F6F6F6F7F7F8F7FAF9FCFBFE24
:101C4000FD00000201040306050807090809090947
:101C500009090908080707050603040101FE00FC3D
:101C6000FDFAFBF8FAF7F8F6F7F6F6F6F6F6F6F7F9
:101C7000F7F8F8FAF9FCFBFEFD0000020104030688
:101C800005070708080909090909090808070705D8
:101C900006030401010000FCFEFAFCF8FAF7F8F66E
:101CA000F7F6F7F6F6F6F6F7F7F8F8FAF9FCFBFEB2
:101CB000FD000002010403060507070808090809DA
:101CC000090909080807070505030401020000FCCB
:101CD000FEFAFBF8FAF7F8F6F7F6F7F6F6F6F6F787
:101CE000F7F8F7FAF9FCFBFEFD0000020104030619
:101CF000050706080809080909090908080707056A
:101D000006030401020000FCFEFAFCF9FAF7F8F6FB
:101D1000F7F6F6F6F6F6F6F7F7F8F7F9F9FBFAFD47
:101D2000FC0000020104030605070608080908096B
:101D3000090909080807070506030401020000FC59
:101D4000FEFAFCF9FAF7F8F6F7F6F7F6F6F6F6F714
:101D5000F7F8F7F9F9FBFBFEFC00000201040306AB
:101D600005080609080908090909090808070705F7
:101D700006030401020000FCFEFAFCF8FAF7F8F68C
:101D8000F7F6F7F6F6F6F6F7F7F8F8F9F9FBFAFED4
:101D9000FC000002000403060508060808090809FB
:101DA000090909080807070506030401020000FDE8
:101DB000FEFAFCF9FAF7F8F6F7F6F7F5F6F6F6F7A5
:101DC000F7F8F8F9F9FBFAFEFC00FE02000403063E
:101DD000050706080709080909090908080707058A
:101DE00006030401020000FDFEFAFCF9FAF7F9F619
:101DF000F7F6F7F6F6F6F6F7F7F8F8FAF9FBFAFD64
:101E0000FC00FE0200040206040706080709080990
:101E1000090909080807070506030401020000FD77
:101E2000FEFBFCF9FAF7F9F6F7F6F7F6F6F6F6F731
:101E3000F7F8F7F9F9FBFAFDFC00FE0200040206D0
:101E4000040706080709080909090808080707051B
:101E500006030401020000FDFEFBFCF9FAF7F9F6A7
:101E6000F7F6F7F6F6F6F6F7F7F8F7F9F9FBFAFDF5
:101E7000FC00FE0200040206040706080709080920
:101E8000090908080807070506030401020000FD08
:101E9000FEFBFCF9FAF7F9F6F8F6F7F6F6F6F6F7C0
:101EA000F7F8F8F9F9FBFAFDFC00FE010004020660
:101EB00004070608070908090809080808070705AC
:101EC00006030401020000FDFEFBFCF9FAF7F9F736
:101ED000F8F6F7F6F6F6F6F7F7F8F7F9F9FBFAFD84
:101EE000FC00FE01000402060407060807090809B1
:101EF000090908080807070606040401020000FD96
:101F0000FEFBFCF9FAF7F9F6F8F6F7F6F6F6F6F74F
:101F1000F7F8F8F9F9FBFAFDFC00FE0100040205F0
:101F2000040706080709080908090808080707063A
:101F300006040401020000FDFEFBFCF9FAF7F9F6C5
:101F4000F8F6F7F5F6F6F6F6F7F8F7F9F9FBFAFD15
:101F5000FC00FE0100030205040706080709080942
:101F6000090908080807070606040402020000FD24
:101F7000FEFBFCF9FBF8F9F7F8F6F7F6F7F6F6F6DC
:101F8000F7F7F7F9F9FBFAFDFC00FE010003020583
:101F900004070608070908090809080808070706CA
:101FA00006040402020000FDFEFBFDF9FBF8F9F750
:101FB000F8F6F7F6F7F6F6F7F7F7F7F9F9FBFAFDA3
:101FC000FC00FE01000302050407060807090809D2
:101FD000080908080807070606040402020000FDB5
:101FE000FEFBFCF9FBF8F9F7F8F6F7F6F7F6F7F76A
:101FF000F7F8F7F9F9FBFAFDFC00FE010003020512
:102000000407060807090809080908080807070659
:1020100006040402020000FD00FBFDF9FBF8F9F7DD
:10202000F8F6F7F6F7F6F7F7F7F7F8F9F9FBFAFD30
:10203000FC00FE0100030205040705080709080962
:10204000080908080807070606040402030000FD43
:1020500000FBFDF9FBF8F9F7F8F6F7F6F7F6F7F7F6
:10206000F7F8F8F9F9FBFAFDFC00FE0100030205A0
:1020700004070508070908090809080808070706EA
:1020800006040402030000FD00FBFDF9FBF8F9F76C
:10209000F8F6F7F6F7F6F7F7F7F7F7F9F9FBFAFDC1
:1020A000FC00FE01000302050407050807080809F3
:1020B000080908080807070606040502030001FED0
:1020C00000FBFDFAFBF8F9F7F8F6F7F6F7F6F7F785
:1020D000F7F7F7F9F8FBFAFDFC00FE010003010534
:1020E000030605080708080908090808080707067D
:1020F00006040502030001FE00FCFDFAFBF8F9F7F7
:10210000F8F6F7F6F7F6F7F7F7F7F8F9F9FBFAFD4F
:10211000FC00FE0100030105030605080708080985
:10212000080908080807070606040502030001FE5F
:1021300000FCFDFAFBF8FAF7F8F6F7F6F7F6F7F712
:10214000F7F8F7F9F9FBFAFCFCFEFD0000030105C6
:10215000030605080608070908090808080707060E
:1021600006040502030001FE00FCFDFAFBF8FAF785
:10217000F8F6F7F6F7F6F7F6F7F7F7F9F9FAFAFCE3
:10218000FCFEFE000002010503060508060808091A
:10219000080908080807070606040502030001FEEF
:1021A00000FCFDFAFBF8FAF7F8F6F7F6F7F6F7F7A2
:1021B000F7F7F7F9F8FAFAFCFBFEFD00000201045C
:1021C000030605070608070908090808080707069F
:1021D00006040502030001FE00FCFDFAFBF8FAF715
:1021E000F8F6F7F6F7F6F7F6F7F7F7F9F8FAFAFC74
:1021F000FBFEFD00000201040306050706080809AE
:10220000080908080808070606040502030001FE7D
:1022100000FCFDFAFBF8FAF7F8F6F7F6F7F6F7F632
:10222000F7F7F7F8F8FAFAFCFBFEFD0000020104EC
:10223000030605070608070908090808080807062D
:1022400006050502030001FE00FCFDFAFCF8FAF7A2
:10225000F9F7F8F6F7F6F7F6F7F7F7F8F8FAFAFC01
:10226000FBFEFD000002010403060508060807093D
:10227000080908080808070606050503030001FE0B
:1022800000FCFDFAFCF9FAF7F9F6F8F6F7F6F7F6BE
:10229000F7F7F8F8F9FAFAFCFBFEFD00000201047A
:1022A00003060507060807090809080808080706BD
:1022B00006050503030001FE00FCFDFAFCF9FAF730
:1022C000F9F7F8F6F7F6F7F6F7F7F7F8F9FAFAFC90
:1022D000FBFEFD00000201040306040706080709CF
:1022E0000809080808080706060505030300010099
:1022F00000FCFDFAFCF9FAF7F9F7F8F6F7F6F7F64D
:10230000F7F7F7F8F8FAFAFCFBFEFD00000201040B
:10231000030604070608070908090808080807064D
:10232000060505030301010000FCFEFAFCF9FAF7BB
:10233000F9F7F8F6F7F6F7F6F7F7F8F8F8FAFAFC1F
:10234000FBFEFD000002010403060407060807095E
:102350000809080808080706060505030301010027
:1023600000FDFEFBFCF9FAF7F9F7F8F6F7F6F7F6D9
:10237000F7F7F8F8F8FAFAFCFBFEFD00000201049A
:1023800002060407060807080809080808080706DF
:10239000060505030301010000FDFEFBFCF9FAF848
:1023A000F9F7F8F6F7F6F7F6F7F7F7F8F8FAFAFCB0
:1023B000FBFEFD00000200040206040706080709F0
:1023C00008090808080807060605050303010200B6
:1023D00000FDFEFBFCF9FAF8F9F7F8F6F7F6F7F668
:1023E000F7F7F7F8F8FAFAFCFBFEFD00000200042C
:1023F000020504070608070908090808080807066F
:10240000060505030301020000FDFEFBFCF9FAF8D6
:10241000F9F7F8F6F7F6F7F6F7F7F7F8F8FAF9FB41
:10242000FBFDFD0000020004020504070608070981
:102430000809080808080707060505030301020044
:1024400000FDFEFBFCF9FAF8F9F7F8F6F7F6F7F6F7
:10245000F7F7F8F8F8FAF9FCFBFDFD0000010004BD
:1024600002050407060807080809080808080707FE
:10247000060505030301020000FDFEFBFCF9FBF865
:10248000F9F7F8F6F7F6F7F6F7F7F7F8F8FAF9FBD1
:10249000FBFDFD00FE010003020504070508070817
:1024A00007090808080807070605050304010200D4
:1024B00000FDFEFBFCF9FBF8F9F7F8F6F7F6F7F686
:1024C000F7F7F7F8F8FAF9FBFBFDFD00FE01000352
:1024D0000205040705080708070908080808070790
:1024E000060505030401020000FDFEFBFCF9FBF8F4
:1024F000F9F7F8F6F7F6F7F6F7F7F7F8F8F9F9FB62
:10250000FBFDFC00FE0100030205040705080708A7
:102510000809080808080707070505030401020061
:1025200000FDFEFBFCFAFBF8F9F7F8F6F7F6F7F614
:10253000F7F7F7F8F8F9F9FBFBFDFC00FE010003E3
:10254000020504070508070807090808080807071F
:10255000060505030401020000FDFEFBFDFAFBF881
:10256000F9F7F8F6F7F6F7F6F7F7F7F8F8F9F9FBF1
:10257000FBFDFC00FE010003020504060508060839
:1025800007090808080807070705050404020200F0
:1025900000FDFEFBFDFAFBF8FAF7F8F6F8F6F7F6A1
:1025A000F7F7F7F8F8F9F9FBFBFDFC00FE01000373
:1025B00002050406050706080708080808080707B3
:1025C000060505030402020000FDFEFCFDFAFBF80F
:1025D000FAF7F8F7F8F6F7F6F7F7F7F8F8F9F9FB7E
:1025E000FBFDFC00FE0100030205030605070608CB
:1025F0000708080808080707060505040402020082
:1026000000FE00FCFDFAFBF8FAF7F9F7F8F6F7F62A
:10261000F7F7F8F8F8F9F9FBFBFDFC00FE01000301
:102620000205030605070608070908080808070742
:10263000060605040402020000FE00FCFDFAFBF899
:10264000FAF7F9F7F8F6F7F6F7F7F8F8F8F9F9FB0B
:10265000FBFDFC00FE01000302050306050706085A
:102660000708080808080707060605040402020010
:1026700000FE00FCFDFAFBF8FAF7F9F7F8F6F7F6BA
:10268000F7F7F8F8F8F9F9FBFBFDFC00FE01000391
:1026900001040306050706080709080808080707D4
:1026A000060605040402020000FE00FCFDFAFBF928
:1026B000FAF7F9F7F8F6F7F6F7F7F8F8F8F9F9FB9B
:1026C000FBFDFC00FE0100020104030605070608ED
:1026D00007080708080807070606050404020200A1
:1026E00001FE00FCFDFAFBF9FAF7F9F7F8F6F7F747
:1026F000F7F7F8F8F8F9F9FBFBFDFCFEFE00000225
:102700000104030605070608070807080708070766
:10271000070605040402020001FE00FCFDFAFCF9B4
:10272000FAF7F9F7F8F6F8F7F7F7F8F8F8F9F9FB28
:10273000FBFDFC00FE00000201040306040706087E
:102740000708070807080707060605040402020031
:1027500001FE00FCFDFAFCF9FAF8F9F7F8F7F8F7D2
:10276000F8F7F8F8F8F9F9FBFBFCFCFEFE000002B4
:1027700001040306040706080708070807080707F7
:10278000060605040402020001FE00FCFDFAFCF945
:10279000FAF8F9F7F8F7F8F7F8F7F8F8F8F9F9FAB6
:1027A000FAFCFCFEFE000002010403060407060812
:1027B00007080708070807070606050404020200C1
:1027C00001FE00FCFDFBFCF9FAF8F9F7F8F7F8F761
:1027D000F8F7F8F8F8F9F9FBFAFCFCFEFE00000245
:1027E0000104030604070508060807080708070789
:1027F000060605040402030001FE00FDFDFBFCF9D2
:10280000FAF8F9F7F8F7F8F7F8F7F8F8F8F9F9FB44
:10281000FBFCFCFEFE0000020104030504070508A2
:10282000060807080708070707060504040203004F
:10283000010000FDFEFBFCF9FAF8F9F7F8F7F8F7EC
:10284000F7F7F8F8F8F9F9FAFAFCFCFEFD000002D7
:10285000010402050407050806080708070807071A
:102860000606060404020300010000FDFEFBFCF95D
:10287000FAF8F9F7F8F7F8F7F8F7F8F8F8F9F9FAD5
:10288000FAFCFCFEFD000002010402050407050736
:1028900006080708070807070706060404030301DC
:1028A000010000FDFDFBFCF9FBF8F9F7F8F7F8F77C
:1028B000F8F7F8F8F8F9F9FAFAFCFCFEFD00000266
:1028C00001040205040705080608070807080707AA
:1028D0000606060404030301010000FDFEFBFCF9EB
:1028E000FBF8F9F7F9F7F8F7F8F7F8F8F8F9F9FA63
:1028F000FAFCFCFEFD0000020104020504070508C5
:10290000060807080708070706060604040303016C
:10291000010000FDFEFBFCFAFBF8F9F7F9F7F8F708
:10292000F8F7F8F8F8F9F9FAFAFCFCFEFD000001F6
:10293000010302050406050706080708070807073C
:102940000606060504030301010000FDFEFBFCFA78
:10295000FBF8FAF8F9F7F8F7F8F7F8F7F8F8F9FAF2
:10296000FAFBFBFDFD00000100030205040605075C
:1029700006080708070807070706060505030301F9
:10298000020000FEFEFCFDFAFBF9FAF7F9F7F8F792
:10299000F8F7F7F7F8F8F9FAFAFBFBFDFD00FE018E
:1029A00000030205040605070608070807080707CD
:1029B0000707060505030301020000FEFEFCFDFA01
:1029C000FBF8FAF7F9F7F8F6F7F7F8F7F8F8F9FA85
:1029D000FAFBFBFDFD0000010003020503060507ED
:1029E0000608070807080708070706050503030286
:1029F000020000FEFEFBFDFAFBF8FAF7F9F7F8F724
:102A0000F7F7F7F7F8F8F8F9FAFBFBFDFD00FE0120
:102A1000000302050406050706080708080807085A
:102A20000707060505030301020000FEFEFCFDFA90
:102A3000FBF9FAF7F9F7F8F7F7F7F7F7F8F8F9FA13
:102A4000FAFBFBFDFD00FE0100030205040605077D
:102A50000608070807080708070606050503030216
:102A6000020000FEFEFCFDFAFBF8FAF7F9F7F8F7B2
:102A7000F8F7F7F7F8F8F9F9FAFBFBFDFC00FE01AF
:102A800000030205040605070608070807080708EB
:102A90000706060505030301020000FEFEFCFDFA21
:102AA000FBF8FAF7F9F7F8F7F8F7F7F7F8F8F9F9A4
:102AB000FAFBFBFDFD00000100030205030605070C
:102AC00006080708070807080707060505030301A6
:102AD000020000FE00FCFDFAFBF9FAF7F9F7F8F73F
:102AE000F8F7F8F7F8F8F9F9FAFBFBFDFD00FE013D
:102AF000000302040306050706080708070807087D
:102B00000707060505040301020000FEFEFCFDFAAE
:102B1000FBF9FAF8F9F7F8F7F8F7F7F7F8F8F9F931
:102B2000FAFBFBFDFD00FE0100030204030605079E
:102B30000608070807080708070706050504030233
:102B4000020000FEFEFCFDFAFBF9FAF8F9F7F8F7CF
:102B5000F8F7F8F7F8F8F9F9FAFBFBFDFD00FE01CC
:102B6000000302040306050706080708070807070D
:102B70000706060505030402020000FE00FCFDFA3C
:102B8000FBF9FAF8F9F7F8F7F8F7F8F7F8F8F9F9C0
:102B9000FAFBFBFDFC00FE01000301040306040731
:102BA00006080708070807080707060505040402C2
:102BB000020000FE00FCFDFAFCF9FAF8F9F7F8F75C
:102BC000F8F7F8F7F8F8F9F9F9FBFBFDFC00FE005F
:102BD000000201040306040706080708070807089F
:102BE0000707060505040402020000FE00FCFDFACA
:102BF000FCF9FAF8F9F7F8F7F8F7F8F7F8F8F9F94F
:102C0000FAFBFBFDFC00FE000002010403060407C2
:102C10000608070807080707070706050504040252
:102C2000020000FE00FCFDFBFCF9FAF8F9F7F8F7EA
:102C3000F8F7F8F7F8F8F9FAFAFBFBFDFC00FE00EC
:102C40000002010403050407060806080708070830
:102C50000707060505040402020000FE00FCFDFB58
:102C6000FCF9FAF8F9F7F8F7F8F7F8F7F8F8F9F9DE
:102C7000FAFBFBFDFC00FE00000201040305040753
:102C800005070608070807080707060505040402E4
:102C9000020001FE00FCFDFBFCF9FAF8F9F7F8F779
:102CA000F8F7F8F7F8F8F9FAFAFBFBFDFC00FE007C
:102CB00000020104030504060507060807080707C4
:102CC0000707060505040402020001FE00FCFDFBE7
:102CD000FCF9FBF8F9F7F9F7F8F7F8F8F8F8F9F96B
:102CE000FAFBFBFCFCFEFE000002010403050406E7
:102CF0000507060807080707070606050504040276
:102D0000020001FE00FDFEFBFCF9FBF8FAF7F9F703
:102D1000F8F7F8F8F8F8F9F9F9FBFAFCFCFEFE0010
:102D20000002010402050406050706080708070754
:102D30000706060505040402020001FE00FDFEFB75
:102D4000FCFAFBF8FAF8F9F7F8F7F8F8F8F8F9F9F7
:102D5000FAFBFBFCFCFEFE00000201030205040678
:102D60000507060706080707070606050504040207
:102D70000200010000FDFEFBFCF9FBF8FAF8F9F790
:102D8000F8F7F8F8F8F8F9F9FAFBFBFCFCFEFE009E
:102D900000020103020504060507060807080707E5
:102DA00007060605050404020200010000FDFEFB03
:102DB000FCFAFBF8FAF8F9F7F8F7F8F7F8F8F9F988
:102DC000FAFBFBFCFCFEFE00000201030205040608
:102DD0000507060706080707060606050504040298
:102DE0000301010000FDFEFBFCFAFBF9FAF8F9F71C
:102DF000F8F7F8F7F8F8F9F9F9FBFBFCFCFEFD0031
:102E00000002010302050406050706070608070776
:102E100007060605050404020301010000FDFEFB90
:102E2000FCFAFBF9FAF8F9F7F9F7F8F7F8F8F9F915
:102E3000FAFBFBFCFCFEFD0000020003020503069A
:102E40000507060706070707070706060504040324
:102E50000301010000FDFEFBFCFAFBF9FAF8F9F7AB
:102E6000F9F7F8F8F8F8F9F9F9FBFBFCFCFEFD00BE
:102E70000001010302050406050706070607060709
:102E800006060605050404020301010000FDFEFB21
:102E9000FCFAFBF9FAF8F9F8F9F8F8F8F8F8F9F9A2
:102EA000FAFBFBFCFCFEFD0000010003020503062B
:102EB00005070607060706070606060505040402B9
:102EC0000300010000FDFEFBFCFAFBF9FAF8F9F73C
:102ED000F9F7F8F8F9F8F9F9FAFBFBFCFCFEFD004C
:102EE000000100030204030604070507060706079E
:102EF00006060605050404020301010000FDFEFCB0
:102F0000FDFAFBF9FAF8F9F8F9F7F8F8F9F8F9F930
:102F1000FAFBFBFCFCFEFD000001000302040306BB
:102F2000040705070607060706060605050404024A
:102F30000301010000FDFEFCFDFAFBF9FAF8F9F8C7
:102F4000F9F8F8F8F9F8F9F9FAFBFBFCFCFEFD00DA
:102F5000000100030204030604060507060706072E
:102F600006060605050404020301010000FDFEFC3F
:102F7000FDFAFBF9FAF8F9F8F9F8F9F8F9F8F9F9BE
:102F8000FAFBFBFCFCFEFD0000010003020403054C
:102F900004060507060706070606060505040402DB
:102FA0000301010000FEFEFCFDFAFCF9FAF8F9F855
:102FB000F9F7F8F8F9F8F9F9FAFBFBFCFCFEFD006B
:102FC00000010003020403050406050706070607BF
:102FD00006060605050404030301010000FDFEFCCE
:102FE000FDFAFBF9FAF8F9F8F9F7F8F8F9F8F9F950
:102FF000FAFBFBFCFCFEFD000001000302040305DC
:103000000406050706070607060606050504040369
:103010000301010000FDFEFCFDFAFBF9FAF8FAF8E5
:10302000F9F8F9F8F9F8F9F9FAFAFBFCFCFEFD00F9
:10303000000100030204030504060507060706074E
:1030400006060606050404030301010000FEFEFC5B
:10305000FDFAFBF9FAF8F9F8F9F8F9F8F9F8F9F9DD
:10306000FAFBFBFCFCFEFD0000010003020403056B
:1030700004060507060706070606060505040403F9
:103080000301010000FEFEFCFDFBFCF9FAF8FAF872
:10309000F9F8F9F8F9F8F9F9FAFBFBFCFCFEFD0088
:1030A00000010002010403050406050706070607E0
:1030B00006060605050404030301010000FEFEFCEC
:1030C000FDFBFCF9FBF8FAF8F9F8F9F8F9F8F9F969
:1030D000FAFAFBFCFCFEFD000001000201040305FE
:1030E0000406050706070607060606050504040389
:1030F0000301010000FE00FCFDFBFCF9FBF8FAF8FF
:10310000F9F8F9F8F9F8F9F9FAFBFBFCFCFEFD0017
:10311000000100020104030504060507060706076F
:1031200006060605050404030301010000FE00FC79
:10313000FDFBFCF9FBF8FAF8F9F8F9F8F9F8F9F9F8
:10314000FAFAFAFCFCFDFD00FE0100020104030591
:103150000406050706070607060606050504040318
:103160000301010000FE00FCFDFBFCFAFBF9FAF88C
:10317000F9F8F9F8F9F8F9F9FAFBFBFCFCFDFD00A8
:10318000FE01000201040305040605070607060701
:1031900006060605050404030301010000FE00FC09
:1031A000FDFBFCFAFBF9FAF8F9F8F9F8F9F9F9F985
:1031B000FAFAFBFCFCFDFD00FE0100020104020521
:1031C00004060507060706070606060505040403A8
:1031D0000301020000FE00FCFDFBFCFAFBF9FAF81B
:1031E000F9F8F9F8F9F9F9F9FAFAFBFCFCFDFD0038
:1031F000FE00000201040305040605070507060793
:1032000006060605050404030301020000FE00FC97
:10321000FDFBFCFAFBF9FAF8F9F8F9F8F9F9F9F914
:10322000FAFAFBFCFCFDFD00FE00000201040205B1
:10323000030605060507060706060605050404033A
:103240000301020000FE00FCFDFBFCFAFBF9FAF8AA
:10325000F9F8F9F8F9F8F9F9FAFAFBFCFCFDFD00C8
:10326000FE00000201030205040605070507060724
:1032700006060605050404030301020000FE00FD26
:10328000FEFBFCFAFBF9FAF8F9F8F9F8F9F8F9F9A4
:10329000FAFAFAFCFBFDFD00FE0000020103020544
:1032A00004060506050706070606060505040403C9
:1032B0000301020000FE00FDFEFBFCFAFBF9FAF838
:1032C000F9F8F9F8F9F9F9F9FAFAFAFCFBFDFD0059
:1032D000FE000002010302040306050605070607B7
:1032E00006060605050404030301020000FE00FDB6
:1032F000FEFBFCFAFBF9FAF9F9F8F9F8F9F9F9F932
:10330000FAFAFAFCFBFDFD00FE00000201030205D3
:103310000306040605070607060606060504040359
:103320000301020000FE00FDFEFBFCFAFBF9FAF8C7
:10333000FAF8F9F8F9F9F9F9FAFAFBFCFCFDFD00E5
:10334000FE00000201030205030504060507060747
:1033500006060605050404030301020000FE00FD45
:10336000FEFBFCFAFBF9FAF8F9F8F9F8F9F8F9F9C3
:10337000F9FAFAFCFBFDFD00FE0000020103020564
:1033800003050406050706070606060505040403EB
:103390000302020000FE00FDFEFBFCFAFBF9FAF856
:1033A000FAF8F9F8F9F8F9F9FAFAFAFCFBFDFD0078
:1033B000FE000002010302040305040605070606D9
:1033C000060606050505040303010200000000FDD2
:1033D000FEFBFCFAFBF9FAF9FAF8F9F8F9F9F9F950
:1033E000FAFAFAFCFCFDFD00FE00000201030204F3
:1033F000030504060507060706060605050404037B
:1034000003010200000000FDFEFBFCFAFBF9FBF9E2
:10341000FAF8F9F8F9F9F9F9FAFAFAFBFBFDFD0007
:10342000FE00000101030205030604060506060767
:1034300006060606050504030302020000FE00FD61
:10344000FEFBFCFAFBF9FBF9FAF8F9F8F9F9F9F9DE
:10345000FAFAFAFBFBFDFDFEFE0000010103020487
:10346000030504060506050706060505050404030D
:103470000302020000FE00FDFEFCFCFAFBF9FAF973
:10348000FAF8F9F8F9F9F9F9FAFAFAFBFBFDFD0097
:10349000FE000001010302040305040605060607F9
:1034A00006060505050404030302020000FE00FDF4
:1034B000FEFCFCFAFBF9FAF8F9F8F9F8F9F8F9F971
:1034C000FAFAFAFCFCFDFD00FE0000020103020412
:1034D000030504060507060706060505050404039B
:1034E0000302020000FE00FDFEFCFDFAFBF9FBF901
:1034F000FAF8F9F8F9F8F9F9FAFAFBFCFCFDFCFE28
:10350000FE00000201030204030504060507060786
:10351000060605050504040303010200010000FD81
:10352000FEFBFCFAFBF9FAF9FAF8F9F8F9F8F9F9FF
:10353000FAFAFAFBFCFDFD00FE00000101030204A3
:10354000030504060506050606060605050504032B
:1035500003010301010000FDFEFBFCFAFBF9FAF890
:10356000F9F7F9F8F8F8F9F9FAFBFBFCFDFEFE00B3
:103570000001000201030204030504050405050619
:10358000050505050504040303010200000000FD14
:10359000FEFCFDFAFCFAFBF9FAF9FAF9FAF9F9FA84
:1035A000FAFAFBFCFBFDFCFEFE0000010003020436
:1035B00003050406050706070606050505050403B9
:1035C0000302020000FE00FDFEFBFDFAFBF9FBF921
:1035D000FAF9FAF9FAF9F9F9FAFAFBFCFBFDFCFE43
:1035E000FD000001010302040306040604050506AC
:1035F000060605060505040303020200010000FD9E
:10360000FEFCFCFAFBF9FAF8F9F8FAF9F9F9F9F91C
:10361000FAFAFBFCFBFDFD00FE00000201030204C0
:10362000030504060406050605060505050504044C
:1036300004020200010000FDFEFCFDFBFCF9FAF8AB
:10364000FAF8FAF8F9F9FAF9FAFAFAFBFBFDFCFED6
:10365000FE0000010002010403050406050605063C
:10366000050605050504040303020200000000FD31
:10367000FEFCFDFBFCFAFBF9FAF8FAF8F9F9FAF9A5
:10368000FAFAFAFBFBFDFCFEFE0000010003020457
:1036900003050406050605060506050505040403DD
:1036A00003020200010000FDFEFCFDFBFCFAFBF939
:1036B000FAF9F9F8F9F9F9F9FAFAFBFCFBFDFCFE65
:1036C000FE000001000202040305040605060506CB
:1036D000050605050504040303020200010000FDC0
:1036E000FEFCFDFBFCFAFBF9FAF9FAF8F9F9F9F935
:1036F000FAFAFAFBFBFDFD00FE00000100020204E5
:10370000020503050406050605060505050504036F
:1037100003020201010000FDFEFCFDFBFCFAFBF9C7
:10372000FAF9FAF9F9F9F9F9FAFAFAFBFBFDFCFEF4
:10373000FE0000010002010403050305040605065E
:10374000050605050505040304020201010000FE4B
:1037500000FCFDFBFCFAFBF9FAF9FAF9F9F9F9F9C1
:10376000FAFAFAFBFBFDFCFEFE0000010002010379
:1037700002050405050605060506050505040403FE
:1037800004020201010000FEFEFCFDFBFCFAFBF955
:10379000FAF9FAF8F9F9F9F9FAFAFBFBFBFCFCFE85
:1037A000FD000001000201030305040605060506ED
:1037B000050605050504040303020201010000FEDD
:1037C000FEFCFDFBFCFAFBF9FAF9FAF9FAF9FAF951
:1037D000FAFAFAFBFBFCFCFEFD00FE01000201030D
:1037E000020504050506050605060606050404038C
:1037F00003020301010000FE00FDFDFBFCFAFBF9E2
:10380000FAF9FAF8F9F8FAF9FAFAFAFBFBFDFCFE14
:10381000FD0000010002010303050305040605067F
:10382000050606060505040304020201010000FE68
:10383000FEFCFDFBFCFAFBF9FBF9FAF9FAF9FAFADE
:10384000FAFAFAFBFBFCFCFEFD000001000201039A
:10385000020403050406050605060505050504041E
:1038600004020301010000FE00FDFDFBFCFAFBF970
:10387000FAF8F9F8F9F9F9F9FAFAFAFBFBFCFCFEA7
:10388000FD00000100020103020403050506050610
:10389000050605060505040403020201010000FEF9
:1038A00000FDFEFBFCFAFBF9FBF9FAF8F9F8FAF96E
:1038B000FAFBFBFCFBFCFBFDFD00FE00000201042B
:1038C00002040305050605060506050605050404AC
:1038D00003020301010000FEFEFCFDFBFCFAFBF904
:1038E000FBFAFAF9F9F8F9F9FAFAFBFBFBFCFCFD33
:1038F000FD00FE00000201030305030504060506A2
:10390000060605050505040303020302020000FE86
:1039100000FDFDFBFCFAFBF9FAF9FAF9FAF9FAFAFB
:10392000FBFCFCFDFCFEFE000001000201030204A2
:103930000305040505060506050505040404030240
:103940000201010000FEFEFCFDFBFCFAFCFAFBF9A3
:10395000FAF9FAF9FAF9FAFAFAFBFBFCFCFEFE00B6
:103960000001000202040204030504060506050620
:1039700005050504040303020201010000FE00FD29
:10398000FEFBFCFAFBF9FBF9FBF9FAF9FAF9FAFA92
:10399000FAFBFBFCFCFEFE00000100020103020436
:1039A00003050406040605050505050404040302D1
:1039B0000201010000FE00FCFDFBFCFAFBFAFBF932
:1039C000FAF9FAF9FAF9FAFBFAFBFBFDFCFEFD0045
:1039D00000010002010303040405040604060406B2
:1039E00005050505040303020200010000FE00FCBA
:1039F000FEFCFDFAFBFAFAF9FAF9FAF9F9FAFAFA21
:103A0000F9FBFBFCFDFEFE000001000201030304C4
:103A10000305040605060405050504040403030262
:103A20000201010000FE00FDFEFCFEFAFCFAFBF9BB
:103A3000FAF9F9F9F9F9FAFAFAFBFBFCFCFEFD00D8
:103A40000000000201030204020504050506050644
:103A500006060404030303020201010000FEFEFD4A
:103A6000FEFCFDFBFCFAFBF9FAF9FAF9F9FAF9FAAE
:103A7000FAFBFBFCFCFEFD00000000020103020457
:103A800003050505050605050505040404030303F0
:103A90000301020000FE00FDFDFBFCFAFBFAFBF94E
:103AA000FAF9FAF9FAF9FAFAFBFBFCFDFDFEFD0062
:103AB00000000001000302040305040504060405D8
:103AC00005050505040403020201010000FE00FDD6
:103AD000FEFCFDFBFBFAFBF9FAF9FAF9FAF9FAFA3E
:103AE000FBFBFCFCFDFEFE000001000200030204E3
:103AF0000305040505060506050504040403030281
:103B00000201010000FE00FDFEFCFDFBFCFAFAF9DB
:103B1000FAF9FAF9FAFAFAFAFAFBFBFCFCFDFD00F5
:103B20000000000201030204030504050405050664
:103B3000050504040403030202010100000000FD66
:103B4000FEFCFDFBFCFAFBFAFAF9FAF9FAF9FAFACB
:103B5000FBFBFBFDFCFEFD00FE0000010103020477
:103B6000030504050405050605050505040304020F
:103B700003010100000000FDFEFCFCFBFCFAFBF968
:103B8000FAF9FAF9FAFAFBFAFBFBFBFDFCFDFD0082
:103B9000FE000001000302040305040505050505F8
:103BA00005050505040403030201010000FE00FDF4
:103BB000FEFCFDFBFCFAFBFAFAF9FAF9FAFAFAFA5A
:103BC000FBFBFBFCFCFDFD00FE000001010202030B
:103BD000030504050405050605050504040403039F
:103BE00002010100000000FDFEFCFDFAFCFAFBF9F9
:103BF000FAF9FAF9FAFAFAFAFBFBFBFCFCFEFD0013
:103C0000FE00000101020203030504050405050688
:103C100005050405040403020201010000FE00FD85
:103C2000FEFCFDFBFCFAFBF9FBF9FAF9FAFAFAFAE9
:103C3000FBFBFBFCFCFDFD00FE0000010103020498
:103C4000030504050406050505050505040403032D
:103C500002010100000000FDFEFCFDFBFCFAFBFA86
:103C6000FBF9FAF9FAFAFAFAFBFBFBFCFCFDFD00A2
:103C7000FE0000010003020402040405040504051B
:103C8000050505040404030202010100000000FD13
:103C9000FEFCFDFBFCFAFBFAFAF9FAF9FAFAFAFA79
:103CA000FBFBFBFCFCFDFD00FE000001000201032C
:103CB00002040305040605060505050504040403BE
:103CC00002010100000000FDFEFCFDFBFCFAFBFA16
:103CD000FBF9FAF9FAFAFAFAFBFBFBFCFCFDFDFE34
:103CE000FE000001000202030304030504050506AB
:103CF000050505050404030302010100010000FDA0
:103D0000FEFCFDFBFCFAFBFAFBF9FBF9FAF9FAFA07
:103D1000FAFBFBFCFCFDFDFEFE00000100030103BD
:103D20000304030504050505050504040404030351
:103D300002010100000000FEFEFCFDFBFCFAFBFAA4
:103D4000FBF9FAF9FAFAFAFAFBFBFBFCFCFDFD00C1
:103D5000FE0000010002010302040305040505053D
:103D6000040504050404030302010100000000FD32
:103D7000FEFCFDFBFCFAFBFAFBF9FAF9FAFAFAFA97
:103D8000FBFBFBFCFCFDFDFEFE000001000201034D
:103D900002040305040504060505040504040303E1
:103DA00002010100000000FEFEFCFDFBFCFAFBFA34
:103DB000FBFAFAFAFAFAFAFAFBFBFBFCFCFDFDFE51
:103DC000FE000001000201040204030504050405CD
:103DD000050504040404030203010200010000FEBF
:103DE000FEFCFDFBFCFBFBFAFBFAFAF9FAFAFAFA25
:103DF000FAFBFBFCFCFDFDFEFE00000100020103DE
:103E00000204030504050406050504040404030371
:103E100003020200000000FEFEFCFDFBFCFAFBFAC0
:103E2000FBF9FBFAFAFAFBFAFBFBFBFCFCFDFDFEDF
:103E3000FE0000010002010302040305040504055D
:103E4000050504050404030303020200010000FE4B
:103E5000FEFCFDFBFCFAFCFAFBF9FAF9FAFAFAFAB5
:103E6000FBFBFBFCFCFDFDFEFE000001000201036C
:103E70000204030504050405050504050404030301
:103E800003010200010000FEFEFDFDFCFCFBFCFA4C
:103E9000FBFAFBF9FAFAFAFAFBFBFBFCFCFDFDFE70
:103EA000FE000001000201030204030504050405ED
:103EB000040504050404030303020200000000FEDD
:103EC00000FDFDFCFDFAFCFAFBFAFAF9FAFAFAFA3F
:103ED000FBFBFBFCFCFDFDFEFE00000100020103FC
:103EE0000204030504050405050504040404030392
:103EF00003020200010000FEFEFDFDFBFDFBFCFADB
:103F0000FBFAFBFAFAFAFAFAFBFBFBFCFCFDFDFEFE
:103F1000FE0000010002010302040305040504057C
:103F2000050504050404030303020200010000FE6A
:103F3000FEFDFDFCFCFBFCFAFBFAFAF9FAFAFAFAD0
:103F4000FBFBFBFCFCFDFDFEFE000001000201038B
:103F50000204030504050405050504040404030321
:103F600003020100010000FE00FDFDFCFDFBFCFA68
:103F7000FBFAFBFAFAFAFAFAFBFBFBFCFCFDFDFE8E
:103F8000FE0000010002010302040305040504050C
:103F9000040504050404030303020200010000FEFB
:103FA000FEFDFDFBFCFBFCFAFBFAFBF9FAFAFAFA60
:103FB000FBFBFBFCFCFDFDFEFE000001000201031B
:103FC00002040304040504050405040404040303B3
:103FD00002020100010000FE00FDFEFCFDFBFCFAF8
:103FE000FBFAFBFAFBFAFAFAFBFBFBFCFCFDFCFE1E
:103FF000FD000000000101030204030404050405A0
:10400000050505050404030303020200010000FE88
:1040100000FDFDFCFCFBFCFAFBFAFAF9FAF9FAFAEE
:10402000FAFBFBFCFCFDFDFEFE00000100020103AB
:104030000204030504050405040504040404030341
:1040400003020200010000FE00FDFEFCFDFBFCFA85
:10405000FBFAFBFAFBFAFBFAFBFBFBFCFCFDFDFEAB
:10406000FE0000000002010302040304040504052D
:10407000040504050404040303020200010000FE19
:1040800000FDFEFCFDFBFCFAFBFAFBFAFBFAFBFA77
:10409000FBFBFBFCFCFDFDFEFE000000000201033B
:1040A00002040304030504050405040404040403D2
:1040B00003020201010000FE00FDFEFCFDFBFCFA14
:1040C000FBFAFAFAFAFAFAFAFBFBFBFCFCFDFDFE3E
:1040D000FE000000000101020203030403050405C1
:1040E000040505050404030303020201010000FEA8
:1040F00000FDFEFCFDFBFCFAFBFAFBFAFBFAFBFA07
:10410000FBFBFBFCFCFDFDFEFE00000000010103CB
:104110000204030403050405040504050404040360
:1041200003020201010000FE00FDFEFCFDFBFCFAA3
:10413000FBFAFBFAFAFAFBFAFBFBFBFCFCFDFDFECB
:10414000FE0000000002010302030304040504054D
:10415000040504050404040303020201010000FE37
:1041600000FDFEFCFDFBFCFAFBFAFBF9FAFAFAFA99
:10417000FBFBFBFCFCFDFDFEFE000000000101035B
:1041800002040304030504050405050504040403EF
:1041900003020201010000FE00FDFEFCFDFBFCFA33
:1041A000FBFAFBFAFBFAFBFAFBFBFBFCFCFDFDFE5A
:1041B000FE000000000101020203030403050405E0
:1041C000040504050404040303020201010000FEC7
:1041D00000FDFEFCFDFBFCFAFBFAFBFAFBFAFBFA26
:1041E000FBFBFBFCFCFDFDFEFE00000000010102EC
:1041F0000203020403050405040504040404040383
:10420000030202010100000000FDFEFCFDFBFCFAC0
:10421000FBFAFBFAFAFAFAFAFBFBFBFCFCFDFCFEEC
:10422000FD00FE0000010103020303040305040571
:10423000040504050404040303020201010000FE56
:1042400000FDFEFCFDFBFCFAFBFAFBFAFBFAFBFAB5
:10425000FBFBFBFCFCFDFDFEFE000000000100027C
:104260000203020403050405040504050404040311
:10427000030202010100000000FDFEFCFDFBFCFA50
:10428000FCFAFBFAFBFAFBFAFBFBFBFCFCFDFCFE79
:10429000FD00FE0000010102020302040305040503
:1042A000040504040404040303020201010000FEE7
:1042B00000FDFEFCFDFBFCFAFBFAFBFAFBFAFAFA46
:1042C000FBFBFBFCFCFDFDFEFE00FE00000100020E
:1042D00002030304030504050405040504040403A0
:1042E00003020201010000FE00FDFEFCFDFBFCFBE1
:1042F000FBFAFBFAFBFAFBFAFBFBFBFBFCFCFDFE0B
:10430000FE00FE0000010002010302040305040593
:104310000405040404040403030202010100000074
:1043200000FDFEFCFDFBFCFBFBFAFBFAFBFAFBFAD3
:10433000FBFBFBFBFCFCFCFEFD00FE0000010002A1
:104340000103020403050405040504040404040332
:10435000030202010100000000FDFEFCFDFBFCFA6F
:10436000FBFAFBFAFBFAFBFAFBFBFBFCFCFDFDFE98
:10437000FD00000000010002010302040304030425
:104380000405040404040403030202010100010003
:1043900000FEFEFCFDFCFDFBFCFBFBFAFBFAFBFA5E
:1043A000FBFBFBFBFBFCFCFDFDFEFE000001000235
:1043B00002030304030504050405040404040303C1
:1043C000030202010100000000FEFEFDFDFCFCFBFB
:1043D000FCFAFBFAFBFAFBFAFBFAFBFBFCFCFCFE2B
:1043E000FD00FE00000100020103020303040304B8
:1043F0000404040404040403030302010100000094
:1044000000FEFEFCFDFBFCFAFCFAFBFAFBFAFBFAF1
:10441000FBFBFBFCFCFDFDFEFD00FE0000010002BD
:104420000103020403040305040504040404040353
:10443000030202010100000000FEFEFDFDFCFDFB89
:10444000FCFBFBFAFBFAFBFAFBFBFBFBFBFCFCFDBA
:10445000FD00FE0000010002010302040304030545
:104460000405040404040403030202010100000023
:1044700000FEFEFDFDFCFDFBFCFAFBFAFBFAFBFA7D
:10448000FBFBFBFBFCFCFCFEFD00FE000001000250
:1044900001030204030403050405040404040403E3
:1044A000030202010100000000FEFEFDFDFCFCFB1A
:1044B000FCFAFBFAFBFAFBFAFBFBFBFBFCFCFCFD4A
:1044C000FD00FE00000100020103020403040405D4
:1044D00004050404040404030302020101000000B3
:1044E00000FEFEFDFDFCFCFBFCFAFBFAFBFAFBFA0E
:1044F000FBFBFBFBFCFCFCFDFD00FE0000010002E1
:104500000103020303040305040504050404040372
:10451000030202010100000000FEFEFDFDFCFCFBA9
:10452000FCFAFBFAFBFAFBFAFBFBFBFBFCFCFCFDD9
:10453000FD00FE0000010002010302040304030465
:104540000405040404040403030302010100000041
:1045500000FEFEFDFDFCFCFBFCFAFBFAFBFAFBFA9D
:10456000FBFBFBFBFCFCFCFDFD00FE000001000270
:104570000103020303040304040504050404030304
:10458000030202010100000000FEFEFDFEFCFDFB37
:10459000FCFAFBFAFBFAFBFAFBFBFBFBFCFCFCFD69
:1045A000FDFEFE00000100020103020403040305F6
:1045B00004050404040404030302020101000000D2
:1045C00000FEFEFDFEFCFDFBFCFAFBFAFBFAFBFA2B
:1045D000FBFBFBFBFCFCFCFDFDFEFE000000000203
:1045E0000103020303040305040504050404040392
:1045F000030202010100000000FE00FDFEFCFDFBC5
:10460000FCFAFBFAFBFAFBFAFBFBFBFBFCFCFCFDF8
:10461000FDFEFE0000010002010302040304030486
:104620000405040404040303030302010100010060
:1046300000FE00FDFEFCFDFBFCFBFBFAFBFAFBFAB7
:10464000FBFBFBFBFCFCFCFDFDFEFE000000000292
:104650000103020303040305040504050404040321
:10466000030202010100000000FE00FDFEFCFDFB54
:10467000FCFBFCFAFBFAFBFAFBFBFBFBFBFCFCFD87
:10468000FDFEFE0000000002010302030304030418
:1046900004050404040403030303020201000100EF
:1046A00000FE00FDFEFCFDFBFCFBFBFAFBFAFBFA47
:1046B000FBFBFBFBFBFCFCFDFDFEFE000000000223
:1046C00001030203030403040405040404040403B3
:1046D000030302010200010000FE00FDFEFCFDFBE1
:1046E000FCFBFCFAFBFAFBFAFBFBFBFBFCFCFCFD16
:1046F000FDFEFE00000000010102020302040304AB
:10470000040504040404030303020201020001007F
:1047100000FE00FDFEFCFDFBFCFBFBFAFBFAFBFAD6
:10472000FBFBFBFBFBFCFCFDFDFEFE0000000001B3
:104730000102020302040304040504040404040344
:10474000030302020201010000FE00FDFEFCFDFB6E
:10475000FCFBFCFAFBFAFBFAFBFAFBFBFBFCFCFDA7
:10476000FDFEFE000000000101020203020403043A
:10477000040404040404040303030202020001000D
:1047800000FE00FDFEFCFDFBFCFBFCFAFBFAFBFA65
:10479000FBFBFBFBFBFCFCFDFDFEFE000000000143
:1047A00001020203030403040405040404040303D4
:1047B000030302020201010000FE00FDFEFCFDFCFD
:1047C000FCFBFBFAFBFAFBFAFBFBFBFBFCFCFCFD36
:1047D000FDFEFE00000000010102020302040304CA
:1047E000030404040404030303030302020101009D
:1047F00000FE00FDFEFCFDFBFCFBFBFAFBFAFBFAF6
:10480000FBFBFBFBFCFCFCFDFDFEFE0000000001D1
:104810000102010302040304040404040404040464
:10482000030303020201010000FE00FDFEFCFDFB8C
:10483000FCFBFCFAFBFAFBFAFBFBFBFBFCFCFCFDC4
:10484000FDFEFE0000000001010202030204030459
:10485000030404040404030303030302020101002C
:1048600000FE00FDFEFCFDFCFCFBFCFAFBFAFBFA83
:10487000FBFBFBFBFBFCFCFDFDFEFE000000000162
:1048800001020103020403040304040404040303F7
:10489000030303020201010000FE00FDFEFCFDFC1B
:1048A000FCFBFCFBFBFAFBFAFBFBFBFBFBFCFCFD54
:1048B000FDFEFE00000000010102010302040304EA
:1048C00003040404040404030303020202010100BC
:1048D000000000FEFEFCFDFCFCFBFCFBFBFAFBFA0F
:1048E000FBFBFBFBFBFCFCFDFDFEFE0000000001F2
:1048F0000002010302040304030404040404040486
:104900000303030202010100000000FDFEFCFDFCA8
:10491000FCFBFCFAFBFAFBFAFBFBFBFBFCFCFCFDE3
:10492000FDFEFE000000000100020103020403047A
:10493000030404040404030303030202020101004C
:10494000000000FEFEFDFDFCFCFBFCFBFBFAFBFA9D
:10495000FBFBFBFBFBFCFCFDFDFEFE000000000181
:104960000002010302040304030404040404030416
:104970000303030202010100000000FEFEFCFDFC37
:10498000FCFBFCFBFBFAFBFAFBFBFBFBFBFCFCFD73
:10499000FDFEFE000000000100020103020403040A
:1049A00003040404040404040303030202010100D9
:1049B000000000FEFEFDFDFCFDFBFCFBFBFAFBFA2C
:1049C000FBFBFBFBFCFCFCFDFDFEFE000000000110
:1049D00000020103020403040304030404040303A8
:1049E0000303030202010100000000FEFEFDFDFCC6
:1049F000FDFBFCFBFBFAFBFAFBFBFBFBFCFCFCFD01
:104A0000FDFEFE000000000100020103020303049A
:104A1000030403040404030303030302020101006B
:104A2000000000FEFEFDFDFCFDFBFCFBFCFBFBFAB9
:104A3000FBFBFBFBFCFCFCFDFDFEFE00000000019F
:104A40000002010302030304030404040404030436
:104A50000303020202010100000000FEFEFDFDFC56
:104A6000FDFBFCFBFBFAFBFBFBFBFBFBFBFCFCFD90
:104A7000FDFEFE000000000100020103020303042A
:104A800003040304030403040303030202010100FB
:104A9000000000FEFEFDFEFCFDFBFCFBFBFBFBFA49
:104AA000FBFBFBFBFCFCFCFDFDFEFE00000000012F
:104AB00000020103020303040304030403040304C8
:104AC0000303030202010100000000FEFEFDFDFCE5
:104AD000FDFBFCFBFBFBFBFAFBFBFBFBFCFCFCFD1F
:104AE000FDFEFE00FE0000010002010302030304BC
:104AF000030403040404030403030302020101008A
:104B0000000000FEFEFDFDFCFDFBFCFBFBFAFBFADA
:104B1000FBFBFBFBFCFCFCFDFDFEFD00FE000001C1
:104B20000002010302030204030404040304030457
:104B30000303030202010100000000FEFEFDFEFC73
:104B4000FDFBFCFBFCFBFBFAFBFBFBFBFBFCFCFDAE
:104B5000FDFEFD00FE00000100020103020303044C
:104B60000304030404040304030303020201010019
:104B7000000000FEFEFDFEFCFDFBFCFBFCFAFBFB67
:104B8000FBFBFBFBFBFCFCFDFDFEFE00000000014F
:104B900000020103020303040304030403040303E8
:104BA0000303030202010100000000FEFEFDFEFC03
:104BB000FDFBFCFBFCFBFBFAFBFBFBFBFCFCFCFD3D
:104BC000FDFEFD00FE0000010002010202030204DE
:104BD00003040304030403040303030202010100AA
:104BE000000000FE00FDFEFCFDFBFCFBFCFBFBFBF4
:104BF000FBFBFBFBFCFCFCFDFDFEFD00FE000001E1
:104C00000002010202030204030403040404030378
:104C10000303030202010100000000FE00FDFEFC90
:104C2000FDFBFCFBFCFBFBFAFBFBFBFBFCFCFCFDCC
:104C3000FDFEFD00FE00000000010102020303046E
:104C40000304030404040304030303020201010038
:104C5000000000FE00FDFEFCFDFBFCFBFCFBFBFA84
:104C6000FBFBFBFBFBFCFCFCFDFDFDFEFE00000076
:104C70000002010202030204030403040304030309
:104C80000303030202010100000000FE00FDFEFC20
:104C9000FDFCFCFBFCFBFBFBFBFBFBFBFBFCFCFC5C
:104CA000FCFDFDFEFE000000000101020203020403
:104CB00003040304030403040303030202010100C9
:104CC000000000FE00FDFEFCFDFBFCFBFCFBFBFB13
:104CD000FBFBFBFBFBFCFCFDFDFDFDFEFE00000005
:104CE0000001010202030204030403040304030499
:104CF0000303030202010100000000FE00FDFEFCB0
:104D0000FDFCFCFBFCFBFBFBFBFBFBFBFCFCFCFCEA
:104D1000FDFDFDFEFE000000000101020203020491
:104D20000304030403040303030303020201010059
:104D3000000000FE00FDFEFCFDFCFCFBFCFBFBFBA1
:104D4000FBFBFBFBFCFCFCFCFDFDFDFEFE00000094
:104D50000001010202030204030403040304030329
:104D60000303030202010100000000FE00FDFEFC3F
:104D7000FDFCFCFBFCFBFBFBFBFBFBFBFBFCFCFD7A
:104D8000FDFDFDFEFE000000000101020203020322
:104D900003040304030403040303030202010100E8
:104DA000000000FE00FDFEFCFDFCFCFBFCFBFCFB30
:104DB000FBFBFBFBFCFCFCFCFDFDFDFEFE00000024
:104DC00000010102010302030304030403040303BB
:104DD0000303030202010100000000FE00FDFEFCCF
:104DE000FDFCFCFBFCFBFBFBFBFBFBFBFCFCFCFC0A
:104DF000FDFDFDFEFE0000000001010201030203B3
:104E00000304030403040303030303020201010078
:104E1000000000FE00FDFEFDFDFCFCFBFCFBFCFBBE
:104E2000FBFBFBFBFCFCFCFCFCFDFDFEFE000000B4
:104E3000000101020103020303040304030403034A
:104E40000303030202010100000000FE00FEFEFD5C
:104E5000FDFCFCFBFCFBFCFBFBFBFBFBFCFCFCFC98
:104E6000FCFDFDFEFE000000000100020103020344
:104E70000304030403040303030303020201010008
:104E8000010000FE00FDFEFDFDFCFDFBFCFBFCFB4C
:104E9000FBFBFBFBFCFCFCFCFCFDFDFEFE00000044
:104EA00000010102010302030304030403040303DA
:104EB00003030302020101000100000000FDFEFDEA
:104EC000FDFCFDFBFCFBFCFBFBFBFBFBFCFCFCFC27
:104ED000FCFDFDFEFE0000000001000201030203D4
:104EE0000304030403040303030303020201010098
:104EF0000100000000FEFEFDFDFCFDFBFCFBFCFBD9
:104F0000FBFBFBFBFCFCFCFCFCFDFDFEFE000000D3
:104F10000001010201030203030403040304030369
:104F200003030302020101000100000000FEFEFD78
:104F3000FDFCFDFBFCFBFCFBFBFBFBFBFCFCFCFCB6
:104F4000FCFDFDFEFE000000000100020103020363
:104F50000304030403040303030303020201010126
:104F60000100000000FEFEFDFDFCFDFBFCFBFCFB68
:104F7000FBFBFBFBFCFCFCFCFDFDFDFEFE00000062
:104F800000010002010302030304030403040303FA
:104F900003030302020101000100000000FEFEFD08
:104FA000FDFCFDFBFCFBFCFBFCFBFBFBFCFCFCFC45
:104FB000FDFDFDFEFE0000000001000201030203F2
:104FC00003040304030403030303030202010101B6
:104FD0000100000000FEFEFDFEFCFDFCFCFBFCFBF6
:104FE000FCFBFBFBFCFCFCFCFCFDFDFEFE000000F2
:104FF000000100020103020302040304030403038B
:1050000003030302020101010100000000FEFEFD96
:10501000FEFCFDFBFCFBFCFBFCFBFCFBFCFCFCFCD2
:10502000FCFDFDFEFE000000000100020103020382
:105030000203030403040303030303020201010147
:105040000100000000FEFEFDFDFCFDFBFCFBFCFB87
:10505000FCFBFBFBFCFCFCFCFCFDFDFEFE00000081
:10506000000100020102020302030304030403031C
:1050700003030302020201010100000000FEFEFD25
:10508000FEFCFDFCFCFBFCFBFCFBFBFBFCFCFCFC62
:10509000FCFDFDFEFE000000000100020102020313
:1050A00002030304030403030303030202020201D5
:1050B0000100000000FEFEFDFEFCFDFCFCFBFCFB15
:1050C000FCFBFBFBFCFCFCFCFDFDFDFEFE00000010
:1050D00000010002010202030203030403040303AC
:1050E00003030302020202010100000000FEFEFDB4
:1050F000FEFCFDFCFCFBFCFBFCFBFBFBFCFCFCFCF2
:10510000FCFDFDFEFE0000000001000201020203A2
:105110000203030403040303030303020202020164
:105120000100000000FEFEFDFEFCFDFCFCFBFCFBA4
:10513000FCFBFBFBFCFCFCFCFCFDFDFEFE000000A0
:10514000000100020102020302030304030403033B
:1051500003030302020202010100000000FEFEFD43
:10516000FEFCFDFCFCFBFCFBFCFBFBFBFCFCFCFC81
:10517000FDFDFDFEFE000000000100010102020332
:1051800002030304030403030303030202020201F4
:105190000100000000FEFEFDFEFCFDFCFCFBFCFB34
:1051A000FCFBFCFBFCFCFCFCFCFDFDFEFE0000002F
:1051B00000010001010202030203030403040303CC
:1051C00003030302020202010100000000FE00FDD1
:1051D000FEFCFDFCFCFBFCFBFCFBFCFBFCFCFCFC10
:1051E000FCFDFDFEFE0000000001000101020103C4
:1051F0000203030303040303030303020202020185
:105200000100000000FE00FDFEFCFDFCFCFBFCFBC1
:10521000FCFBFCFBFCFBFCFCFCFDFDFEFE00FE00C1
:10522000000100010102020302030303030403035C
:1052300003030303020202010100000000FE00FD5F
:10524000FEFCFDFCFCFBFCFBFCFBFCFBFCFCFCFC9F
:10525000FCFDFDFEFE00FE00000000010102020355
:105260000203030303040303030303030202020113
:105270000100000000FE00FDFEFCFDFCFDFBFCFB50
:10528000FCFBFBFBFCFCFCFCFCFDFDFEFE00FE0051
:1052900000000001010202030203030403040303EC
:1052A00003030302020202010100000000FE00FDF0
:1052B000FEFDFDFCFCFBFCFBFCFBFBFBFCFCFCFC2F
:1052C000FCFDFDFEFE00FE000000000101020203E5
:1052D00002030303030403030303030202020201A4
:1052E0000100000000FE00FDFEFDFDFCFDFBFCFBDF
:1052F000FCFBFCFBFCFCFCFCFCFDFDFEFE00FE00E0
:10530000000000010102010302030303030403037D
:1053100003030303020202010100000000FE00FD7E
:10532000FEFDFDFCFCFBFCFBFCFBFCFBFCFCFCFCBD
:10533000FCFDFDFEFE00FE00000000010102010375
:105340000203030303040303030303030202020132
:105350000100000000FE00FDFEFDFDFCFCFBFCFB6F
:10536000FCFBFCFBFCFCFCFCFCFDFDFEFDFEFE0072
:10537000000000010102010302030304030403030C
:1053800003030303020202010100000000FE00FD0E
:10539000FEFCFDFCFDFBFCFBFCFBFCFBFCFCFCFC4D
:1053A000FCFDFDFEFE00FE00000000010102010305
:1053B00002030303030403030303030302020201C2
:1053C0000100000000FE00FDFEFDFDFCFCFBFCFBFF
:1053D000FCFBFCFBFCFCFCFCFCFDFDFEFE00FE00FF
:1053E000000000010102010302030203030403039E
:1053F00003030303020202010100000000FE00FD9E
:10540000FEFDFDFCFDFBFCFBFCFBFCFBFCFCFCFCDB
:10541000FCFDFDFEFEFEFE00000000010102010396
:105420000203030303040303030303030202020151
:105430000100000000FE00FDFEFDFDFCFDFCFCFB8C
:10544000FCFBFCFBFCFCFCFCFCFDFDFEFEFEFE0090
:10545000000000010102010302030203030403032D
:1054600003030303020202010100000000FE00FE2C
:10547000FEFDFDFCFDFCFCFBFCFBFCFBFCFCFCFC6A
:10548000FCFDFDFEFEFEFE00000000010002010327
:1054900002030203030403030303030302020201E2
:1054A00001000000000000FEFEFDFDFCFDFCFCFB19
:1054B000FCFBFCFBFCFCFCFCFCFDFDFDFDFEFE0022
:1054C00000000001000201020203020303040303BF
:1054D000030303030202020101000000000000FEBA
:1054E000FEFDFDFCFDFCFCFBFCFBFCFBFCFCFCFCFA
:1054F000FCFDFDFDFDFEFE000000000100020102BA
:105500000203020303040303030303030202020171
:105510000100000000FE00FEFEFDFDFCFDFCFCFBAA
:10552000FCFBFCFBFCFCFCFCFCFDFDFEFDFEFE00B0
:10553000000000010002010202030203030403034E
:10554000030303030202020101000000000000FE49
:10555000FEFDFDFCFDFCFCFBFCFBFCFBFCFCFCFC89
:10556000FCFDFDFDFDFEFE00000000010002010249
:105570000203020303030303030303030202020102
:1055800001000100000000FEFEFDFDFCFDFCFCFB37
:10559000FCFBFCFBFCFCFCFCFCFDFDFDFDFEFE0041
:1055A00000000001000201020203020303030303DF
:1055B000030303030202020101000000000000FED9
:1055C000FEFDFDFCFDFCFCFBFCFBFCFBFCFCFCFC19
:1055D000FCFDFDFDFDFEFE000000000100020102D9
:1055E0000203020303030303030303030202020192
:1055F00001000100000000FEFEFDFEFCFDFCFCFBC6
:10560000FCFBFCFBFCFCFCFCFCFDFDFDFDFEFE00D0
:10561000000000010002010202030203030303036E
:10562000030303030202020101000000000000FE68
:10563000FEFDFEFCFDFCFCFBFCFBFCFBFCFCFCFCA7
:10564000FCFDFDFDFDFEFE00000000010002010268
:105650000203020303030303030303030202020121
:1056600001000000000000FEFEFDFEFCFDFCFCFB56
:10567000FCFBFCFBFCFCFCFCFCFDFDFDFDFEFE0060
:1056800000000001000201020203020303030303FE
:10569000030303030202020101000100000000FEF7
:1056A000FEFDFEFDFDFCFDFCFCFBFCFBFCFCFCFC34
:1056B000FCFDFDFDFDFEFE000000000100010102F9
:1056C00001030203030303030303030302020201B2
:1056D00001000100000000FEFEFDFEFCFDFCFCFCE4
:1056E000FCFBFCFBFCFCFCFCFCFDFDFDFDFEFE00F0
:1056F000000000010001010202030203030303038F
:10570000030303030202020101010100000000FE85
:10571000FEFDFEFCFDFCFCFCFCFBFCFBFCFCFCFCC5
:10572000FCFDFDFDFDFEFE00000000010001010288
:105730000203020302030303030303030202020141
:1057400001000100000000FEFEFDFEFCFDFCFDFC72
:10575000FCFBFCFBFCFCFCFCFCFDFDFDFDFEFE007F
:105760000000000100010102010302030203030320
:10577000030303030202020101010100000000FE15
:10578000FEFDFEFCFDFCFDFCFCFBFCFBFCFCFCFC54
:10579000FCFDFDFDFDFEFE00000000010001010218
:1057A00001030203030303030303030302020201D1
:1057B00001010100000000FEFEFDFEFCFDFCFDFC01
:1057C000FCFBFCFBFCFCFCFCFCFDFDFDFDFEFE000F
:1057D00000000001000101020203020302030303AF
:1057E000030303030202020101010100000000FEA5
:1057F000FEFDFEFDFDFCFDFCFCFBFCFBFCFCFCFCE3
:10580000FCFCFDFDFDFEFE000000000100010102A8
:105810000203020302030303030303030202020160
:1058200001010100000000FE00FDFEFDFDFCFDFC8D
:10583000FCFBFCFBFCFCFCFCFCFCFDFDFDFEFE009F
:10584000000000000001010202030203020303033F
:10585000030303030202020101010100000000FE34
:1058600000FDFEFDFDFCFDFCFCFBFCFBFCFCFCFC70
:10587000FCFCFDFDFDFEFE00000000000001010239
:1058800002030203020303030303030302020201F0
:1058900001010100000000FE00FDFEFDFDFCFDFC1D
:1058A000FCFBFCFBFCFCFCFCFCFCFDFDFDFEFE002F
:1058B00000000000000101020103020302030303D0
:1058C000030303030202020101010100000000FEC4
:1058D00000FDFEFDFDFCFDFCFCFCFCFBFCFCFCFCFF
:1058E000FCFCFDFDFDFEFE000000000000010102C9
:1058F0000102020302030303030303030202020182
:1059000001010100000000FE00FDFEFDFDFCFDFCAC
:10591000FCFBFCFBFCFCFCFCFCFCFDFDFDFEFE00BE
:105920000000000000010102010202030203030360
:10593000030303030202020102010100000000FE52
:1059400000FEFEFDFDFCFDFCFCFCFCFBFCFCFCFC8D
:10595000FCFCFDFDFDFEFE00000000000001010258
:105960000102020302030303030303030202020111
:1059700002010100000000FE00FDFEFDFDFCFDFC3B
:10598000FCFBFCFBFCFCFCFCFCFCFDFDFDFEFE004E
:1059900000000000000101020102020302030303F0
:1059A000030303030202020102010100000000FEE2
:1059B00000FEFEFDFDFCFDFCFCFCFCFBFCFCFCFC1D
:1059C000FCFCFDFDFDFEFE000000000000010102E8
:1059D00001020203020302030303030302020201A2
:1059E00002010100000000FE00FEFEFDFDFCFDFCCA
:1059F000FCFCFCFBFCFCFCFCFCFCFDFDFDFEFE00DD
:105A0000000000000001010201020203020303037F
:105A1000030303030202020102010100000000FE71
:105A200000FEFEFDFDFCFDFCFCFCFCFBFCFCFCFCAC
:105A3000FCFCFDFDFDFEFE00FE0000000001010279
:105A4000010202030203030303030303020202022F
:105A500002010100000000FE00FEFEFDFDFCFDFC59
:105A6000FCFCFCFBFCFCFCFCFCFCFDFDFDFEFE006C
:105A7000FE00000000010102010202030203020312
:105A8000030303030202020202010100000000FE00
:105A900000FEFEFDFEFCFDFCFCFCFCFBFCFCFCFC3B
:105AA000FCFDFDFDFDFEFE00FE0000000001000209
:105AB00001020203020302030303030302020201C1
:105AC00002010100000000FE00FEFEFDFEFCFDFCE8
:105AD000FCFCFCFBFCFCFCFCFCFCFDFDFDFEFE00FC
